:020000040800F2
:10000000E00B00106906000865060008610800089A
:100010006506000865060008650600080000000087
:10002000000000000000000000000000650600085D
:1000300065060008000000006506000821080008A9
:1000400065060008650600086506000865060008E4
:1000500065060008650600086506000865060008D4
:1000600065060008650600086506000865060008C4
:1000700065060008650600086506000865060008B4
:1000800065060008650600086506000865060008A4
:100090006506000865060008650600086506000894
:1000A0006506000865060008650600086506000884
:1000B0006506000865060008650600086506000874
:1000C0006506000865060008650600086506000864
:1000D00065060008650600088D0A00086506000828
:1000E0006506000865060008650600086506000844
:1000F0006506000865060008650600086506000834
:100100006506000865060008650600086506000823
:100110006506000865060008650600086506000813
:100120006506000865060008650600086506000803
:1001300065060008650600086506000865060008F3
:1001400065060008650600086506000865060008E3
:1001500065060008650600086506000865060008D3
:1001600065060008650600086506000865060008C3
:100170006506000865060008650600080000000026
:08018000650600086506000891
:0C018800BB001000803E00000024F400CA
:1001A0007047704710B50C462046024B9847002810
:1001B000FAD010BD090A000810B50C46237833B1F7
:1001C0002078034B98470028FAD00134F6E710BD99
:1001D000090A000810B5024B04469847204610BD96
:1001E0003D0600080846014B184700BF610A000899
:1001F00037B51C4B1C4C4FF4006098474FF400651A
:100200000723A8228DE82800042102234FF4800050
:10021000A047164C164B40F6E44120469847294625
:10022000144B02209847144B9A6822F0F0029A600F
:100230009A6822F4E05242F4A0529A609A6822F43A
:10024000604242F400429A600C4B0D4A1C600D4B18
:100250001A600D4BA8221A800C4B112201201A8023
:1002600003B030BD2D09000855090008007A030AC3
:10027000C1080008B909000800380240080C001045
:1002800040900200040C0010020C0010000C001042
:1002900008B5294B9847294B29489847294B2A49A3
:1002A0004FF000529A611A6822F0406242F0806278
:1002B0001A604FF080529A611A6822F0407242F040
:1002C00080721A604FF080429A611A6822F04052A0
:1002D00042F080521A604FF000429A611A6822F090
:1002E000404242F080421A60A3F540631A6822F04F
:1002F00003021A605A6822F001025A609A6822F0DA
:1003000003029A60A3F544439A6842F001029A609E
:10031000DA6822F00102DA604A6C42F480424A64F0
:10032000A1F580318A6822F00F028A601A6842F0D3
:1003300001021A6008BD00BFF10100083D08000875
:100340003F900200000C0240003802402DE9F041CD
:10035000604B614C9847614B1A6822F0407242F042
:1003600080721A601A6822F0404242F080421A609D
:100370001A6822F0405242F080521A601A6822F045
:10038000406242F080621A60554A136A23F4706337
:1003900043F4E0631362136823F0300343F0200357
:1003A0001360504B1A6C42F400321A641A6A42F419
:1003B00000321A621A6A22F400321A62E36843F4C5
:1003C0000053E360E36823F40053E36040F26D13ED
:1003D000A360E36823F4B053E360E36823F40043CD
:1003E000E360E36843F40053E3600C203E4B98471E
:1003F000E36843F00803E360E36843F00403E36069
:10040000364B3A4D5A69D4044CBF4FF080524FF4EA
:1004100080529A615B69314A19044CBF4FF0004326
:100420004FF4004393612D4B5A6952044CBF4FF077
:1004300080424FF480429A615B69284A9B044CBF1A
:100440004FF000534FF400539361254B1B6913F099
:10045000010F14BFFA204FF4FA70254B98476B68D0
:10046000284623B9286823490368DB6804E0022B87
:1004700020490CBF204B214B9847214A1368591C37
:1004800011606A6822B9194618481E4B984715E052
:10049000022A4FEA13614FEA13480CBF1A4E1B4E53
:1004A00012481F0ADCB2B0475FFA88F10F48B04724
:1004B000F9B20E48B04721460C48B0472868036897
:1004C0000A219B689847286803681B69984700239E
:1004D0006B6095E79102000800440040000C024068
:1004E0000000024000380240E509000870000020CA
:1004F000790D0008B80C00081D060008D905000891
:100500008000002075050008F5050008B905000801
:1005100070B50C4C0C4B0D4A23600D490D4B0E4D24
:100520002046984721460D48A84721460C48A84731
:1005300021460C48A84721462B460B48BDE8704091
:10054000184700BF84000020A00C00080000002015
:10055000A1010008390600086D0500088800002088
:100560007000002078000020680000200022016058
:10057000426070471FB50B4604A9002201F8022D06
:100580000A22B3FBF2F2303302EB8204A3EB440302
:1005900001F8013D1346002AF2D100680368DB68C8
:1005A000984704B010BD0068092903688CBF373133
:1005B0003031C9B29B68184770B5064C06460D46E7
:1005C0000909A04705F00F0130462346BDE87040F9
:1005D000184700BFA705000838B505460C46217826
:1005E00021B12846024B98470134F8E738BD00BFD7
:1005F000B905000870B506460C460025306803684A
:1006000014F0800F14BF312130219B6801359847C9
:100610006400082DE4B2F1D170BD000038B5054684
:100620000C46217821B12846024B98470134F8E75F
:1006300038BD00BFF505000800207047004B184783
:10064000E90B000810B588420BD290E80C008468D2
:10065000A34204D214681C6004320433F7E70C3060
:10066000F1E710BDFEE7704708B53D4B3D491A6CF8
:1006700042F080521A640A6842F480720A601A6B6F
:1006800042F4A0121A634B484B4902C04B494EF248
:10069000FC724EF20143028000F102009A4201D046
:1006A000A2F101028842F6D12F493048304CA047D0
:1006B000304B314A934209D21A6859688A4203D2B0
:1006C000002111600432F8E70833F2E72B4AD368BF
:1006D00043F08073D3602A4B00225A60196841F0BE
:1006E0000101196003F55D43D3F8881041F47001EE
:1006F000C3F8881023499960596941F48871596198
:1007000002F1604101F561410132FF20512A81F877
:100710000003F5D1DA684FF6FF0111401A4A0A4387
:10072000DA601A4B98471A4B98471A491A48A0475B
:100730001A4B1B4A934209D21A6859688A4203D25B
:10074000002111600432F8E70833F2E7154B9847AF
:10075000154B9847154B98470120154B984700BFFC
:1007600000380240007000402C0E0008080E0008FF
:1007700045060008000E0008080E0008F0ED00E035
:10078000001000E0000000080003FA05090B000853
:10079000670600082C0E00082C0E00082C0E00081E
:1007A0002C0E0008C50700089D0B00084D0300082B
:1007B000C30700080000001000DEFDE7040C001075
:1007C0007047FEE710B5064C064B074A2146092044
:1007D0009847236813B90C20044B984710BD00BFFD
:1007E00090000020290B000894000020C307000897
:1007F00008B5064B186801441960054B1B689942FF
:1008000002D30C20034B984708BD00BF9000002086
:1008100094000020C3070008004B1847F90B00089C
:10082000044A136801331360034B1B6803B1184774
:10083000704700BFAC01002098000020054B064A1D
:100840005860F02182F8231000229A6007221A6073
:10085000704700BF10E000E000ED00E00000000085
:10086000864611480068C007704602D56FF0060E34
:100870002ABE8646684680F309880C4888B08545BC
:1008800008B001D50A48854670460A4880476FF08F
:100890000600864608480538FDD5084880476FF0B1
:1008A00006008646F6E70000F0ED00E000000010CC
:1008B000000C0010710B0008080C0010850B0008DC
:1008C00040F63303994210B504460CD9B1F5166FC2
:1008D0000CD340F68B2399420F4B104A96BF072149
:1008E00006211A4604E008210D4A01E00D4A0821BC
:1008F000002352F82300A04204D20133DBB2994214
:10090000F7D810BD08490A6822F00F0242F4E062ED
:1009100013430B6010BD00BFE80C0008240D000855
:10092000040D0008C80C0008003C0240084A136887
:1009300023F4A02343F480331360054B1B6813F4A6
:10094000003301D10138F8D1181C18BF01207047BD
:1009500000380240F0B59DF81440154D069ED5F8BC
:1009600004E0240604F07067124C0EEA04043C43D1
:100970005B08204301F03F01920147F6C074013B40
:10098000014314401B0403F440330C431C436C60CC
:100990002B6843F080732B60054B186810F00070D3
:1009A00001D1013EF8D1003018BF0120F0BD00BFD9
:1009B000003802400080BCF0094A936823F003032A
:1009C000034393608000064B9B6803F00C0398423E
:1009D00003D00139F7D1084670470120704700BFA6
:1009E00000380240064B00014022C0B283F82603C3
:1009F0005A60044AD36843F02003D360704700BFB5
:100A000000E100E00044004010B5134B19785A781B
:100A100091421A4603D1114B1968090619D411786D
:100A200052780D4C4B1CDBB2FB2B28BF00239A42A3
:100A30000DD0214423708870EFF3108172B6074AFD
:100A4000D36843F08003D36081F3108802E0002074
:100A500010BD5860012010BD9C00002000440040E3
:100A6000094A1178537899420BD05378D118013341
:100A7000DBB2112B8978017028BF0023537001204D
:100A800070470020704700BF99010020154B1A687D
:100A9000920610B50DD5144A5868117854784B1C3D
:100AA000DBB2112B28BF00239C421EBF8918137094
:100AB00088700C490B681B0613D50C4A10785378C4
:100AC000984204D1CB6823F08003CB6010BD5378EB
:100AD000D0180133DBB2FB2B8078486028BF00239D
:100AE000537010BD00440040990100209C0000207C
:100AF000034A002313705370024A137053707047F7
:100B0000990100209C000020064B1A6B42F09F02C6
:100B10001A631A6942F09F021A611A6922F09F0251
:100B20001A61704700380240F0B500230E4C0B608C
:100B3000864613600D4DAC4215D225681EEA050F9E
:100B40000FD066681068A7688642A7EB060502D139
:100B500017602B4405E0AB429FBF0E60A368136093
:100B60002B460C34E6E7F0BD2C0E00085C0E0008A6
:100B7000034A136823F0404343F0804313607047F7
:100B8000000C0240044B5A6912044CBF4FF0004263
:100B90004FF400429A617047000C024070B50E4B52
:100BA0000E4CE41AA41000251E46A54204D056F8A7
:100BB000253098470135F8E7FFF702FE084C094B4E
:100BC000E41AA41000251E46A54204D056F825308C
:100BD00098470135F8E770BD3C0D00083C0D000852
:100BE000440D00083C0D0008024B01461868FFF751
:100BF00013BE00BF6400002038B50546002946D06A
:100C000051F8043C0C1F002BB8BFE41800F042F868
:100C10001F4A1368114613B96360146032E0A3429F
:100C20000ED92268A018834204BF18685B6863600D
:100C300004BF121822600C6024E0A24203D81346BD
:100C40005A68002AF9D118681918A1420BD12168F5
:100C5000014458188242196014D1106852685A60D1
:100C6000014419600EE002D90C232B600AE02168D0
:100C70006018824204BF10685268626004BF09189D
:100C800021605C602846BDE8384000F004B838BDFB
:080C9000B0010020704770471D
:100C98000000000000000000A1010008D5010008C4
:100CA800A5010008B9010008A3010008E501000832
:100CB8004C6F6F7020636F756E7465723A20000018
:100CC80080B14F0100639F028014EF0300C63E0508
:100CD80080778E060029DE0780DA2D09007A030A5C
:100CE80000366E01006CDC0200A24A0400D8B80588
:100CF800000E270700449508007A030A002D3101E9
:100D0800005A62020087930300B4C40400E1F505A9
:100D1800000E2707003B58080068890980C3C901ED
:100D280000879303804A5D05000E270780D1F008ED
:0C0D3800007A030A11050008F10A000807
:100D4400034B08221B885A43801AC01AFDD57047EA
:100D5400000C001048B1054A054B128859685043ED
:100D640019385A68521A9042FBDC7047020C001082
:100D7400001000E048B1054B054A1B685168584310
:100D8400193853685B1A9842FBDC7047040C001056
:040D9400001000E06B
:100D9800000000200000000000000000000000002B
:100DA800000000000000000000000000000000003B
:100DB800000000000000000000000000000000002B
:100DC800000000000000000000000000000000001B
:100DD800000000000000000000000000000000000B
:100DE80000000000000000000000000000000000FB
:080DF8000000000004000020CF
:080E000068000020B40100208D
:100E0800980D0008000000206800002088010008F4
:100E1800000C00100C0C0010940100080040024067
:040E28000040024044
:100E2C001F000000B401002000C001200940000098
:100E3C0000400240005002401900000000C0012098
:100E4C0000000220022000000C0C00100000011019
:040000050800066980
:00000001FF
